{
  "_format": "hh-sol-artifact-1",
  "contractName": "AgentIdentityRegistry",
  "sourceName": "contracts/AgentIdentityRegistry.sol",
  "abi": [
    {
      "anonymous": false,
      "inputs": [
        {
          "indexed": true,
          "internalType": "uint256",
          "name": "agentId",
          "type": "uint256"
        },
        {
          "indexed": false,
          "internalType": "address",
          "name": "wallet",
          "type": "address"
        },
        {
          "indexed": false,
          "internalType": "string",
          "name": "name",
          "type": "string"
        }
      ],
      "name": "AgentRegistered",
      "type": "event"
    },
    {
      "inputs": [
        {
          "internalType": "uint256",
          "name": "",
          "type": "uint256"
        }
      ],
      "name": "agents",
      "outputs": [
        {
          "internalType": "uint256",
          "name": "agentId",
          "type": "uint256"
        },
        {
          "internalType": "address",
          "name": "agentWallet",
          "type": "address"
        },
        {
          "internalType": "string",
          "name": "name",
          "type": "string"
        },
        {
          "internalType": "string",
          "name": "role",
          "type": "string"
        },
        {
          "internalType": "string",
          "name": "metadataURI",
          "type": "string"
        },
        {
          "internalType": "bool",
          "name": "active",
          "type": "bool"
        },
        {
          "internalType": "uint256",
          "name": "registeredAt",
          "type": "uint256"
        }
      ],
      "stateMutability": "view",
      "type": "function"
    },
    {
      "inputs": [
        {
          "internalType": "uint256",
          "name": "agentId",
          "type": "uint256"
        }
      ],
      "name": "isActive",
      "outputs": [
        {
          "internalType": "bool",
          "name": "",
          "type": "bool"
        }
      ],
      "stateMutability": "view",
      "type": "function"
    },
    {
      "inputs": [],
      "name": "nextAgentId",
      "outputs": [
        {
          "internalType": "uint256",
          "name": "",
          "type": "uint256"
        }
      ],
      "stateMutability": "view",
      "type": "function"
    },
    {
      "inputs": [
        {
          "internalType": "address",
          "name": "_wallet",
          "type": "address"
        },
        {
          "internalType": "string",
          "name": "_name",
          "type": "string"
        },
        {
          "internalType": "string",
          "name": "_role",
          "type": "string"
        },
        {
          "internalType": "string",
          "name": "_metadataURI",
          "type": "string"
        }
      ],
      "name": "registerAgent",
      "outputs": [
        {
          "internalType": "uint256",
          "name": "",
          "type": "uint256"
        }
      ],
      "stateMutability": "nonpayable",
      "type": "function"
    },
    {
      "inputs": [
        {
          "internalType": "address",
          "name": "",
          "type": "address"
        }
      ],
      "name": "walletToAgentId",
      "outputs": [
        {
          "internalType": "uint256",
          "name": "",
          "type": "uint256"
        }
      ],
      "stateMutability": "view",
      "type": "function"
    }
  ],
  "bytecode": "0x6080604052600160005534801561001557600080fd5b50610d86806100256000396000f3fe608060405234801561001057600080fd5b50600436106100575760003560e01c806330efc4981461005c578063513856c81461007a57806369f1324d146100b057806382afd23b146100e0578063b3fa7cb814610110575b600080fd5b610064610140565b604051610071919061056f565b60405180910390f35b610094600480360381019061008f91906105ca565b610146565b6040516100a797969594939291906106e3565b60405180910390f35b6100ca60048036038101906100c591906108c8565b61034d565b6040516100d7919061056f565b60405180910390f35b6100fa60048036038101906100f591906105ca565b610511565b6040516101079190610983565b60405180910390f35b61012a6004803603810190610125919061099e565b61053e565b604051610137919061056f565b60405180910390f35b60005481565b60016020528060005260406000206000915090508060000154908060010160009054906101000a900473ffffffffffffffffffffffffffffffffffffffff1690806002018054610195906109fa565b80601f01602080910402602001604051908101604052809291908181526020018280546101c1906109fa565b801561020e5780601f106101e35761010080835404028352916020019161020e565b820191906000526020600020905b8154815290600101906020018083116101f157829003601f168201915b505050505090806003018054610223906109fa565b80601f016020809104026020016040519081016040528092919081815260200182805461024f906109fa565b801561029c5780601f106102715761010080835404028352916020019161029c565b820191906000526020600020905b81548152906001019060200180831161027f57829003601f168201915b5050505050908060040180546102b1906109fa565b80601f01602080910402602001604051908101604052809291908181526020018280546102dd906109fa565b801561032a5780601f106102ff5761010080835404028352916020019161032a565b820191906000526020600020905b81548152906001019060200180831161030d57829003601f168201915b5050505050908060050160009054906101000a900460ff16908060060154905087565b60008060008081548092919061036290610a5a565b9190505590506040518060e001604052808281526020018773ffffffffffffffffffffffffffffffffffffffff16815260200186815260200185815260200184815260200160011515815260200142815250600160008381526020019081526020016000206000820151816000015560208201518160010160006101000a81548173ffffffffffffffffffffffffffffffffffffffff021916908373ffffffffffffffffffffffffffffffffffffffff160217905550604082015181600201908161042d9190610c4e565b5060608201518160030190816104439190610c4e565b5060808201518160040190816104599190610c4e565b5060a08201518160050160006101000a81548160ff02191690831515021790555060c0820151816006015590505080600260008873ffffffffffffffffffffffffffffffffffffffff1673ffffffffffffffffffffffffffffffffffffffff16815260200190815260200160002081905550807f0d063c6022bff16d09991a9f91882ffa112f5fb2529136f65eb4c77bbd047e4387876040516104fd929190610d20565b60405180910390a280915050949350505050565b60006001600083815260200190815260200160002060050160009054906101000a900460ff169050919050565b60026020528060005260406000206000915090505481565b6000819050919050565b61056981610556565b82525050565b60006020820190506105846000830184610560565b92915050565b6000604051905090565b600080fd5b600080fd5b6105a781610556565b81146105b257600080fd5b50565b6000813590506105c48161059e565b92915050565b6000602082840312156105e0576105df610594565b5b60006105ee848285016105b5565b91505092915050565b600073ffffffffffffffffffffffffffffffffffffffff82169050919050565b6000610622826105f7565b9050919050565b61063281610617565b82525050565b600081519050919050565b600082825260208201905092915050565b60005b83811015610672578082015181840152602081019050610657565b60008484015250505050565b6000601f19601f8301169050919050565b600061069a82610638565b6106a48185610643565b93506106b4818560208601610654565b6106bd8161067e565b840191505092915050565b60008115159050919050565b6106dd816106c8565b82525050565b600060e0820190506106f8600083018a610560565b6107056020830189610629565b8181036040830152610717818861068f565b9050818103606083015261072b818761068f565b9050818103608083015261073f818661068f565b905061074e60a08301856106d4565b61075b60c0830184610560565b98975050505050505050565b61077081610617565b811461077b57600080fd5b50565b60008135905061078d81610767565b92915050565b600080fd5b600080fd5b7f4e487b7100000000000000000000000000000000000000000000000000000000600052604160045260246000fd5b6107d58261067e565b810181811067ffffffffffffffff821117156107f4576107f361079d565b5b80604052505050565b600061080761058a565b905061081382826107cc565b919050565b600067ffffffffffffffff8211156108335761083261079d565b5b61083c8261067e565b9050602081019050919050565b82818337600083830152505050565b600061086b61086684610818565b6107fd565b90508281526020810184848401111561088757610886610798565b5b610892848285610849565b509392505050565b600082601f8301126108af576108ae610793565b5b81356108bf848260208601610858565b91505092915050565b600080600080608085870312156108e2576108e1610594565b5b60006108f08782880161077e565b945050602085013567ffffffffffffffff81111561091157610910610599565b5b61091d8782880161089a565b935050604085013567ffffffffffffffff81111561093e5761093d610599565b5b61094a8782880161089a565b925050606085013567ffffffffffffffff81111561096b5761096a610599565b5b6109778782880161089a565b91505092959194509250565b600060208201905061099860008301846106d4565b92915050565b6000602082840312156109b4576109b3610594565b5b60006109c28482850161077e565b91505092915050565b7f4e487b7100000000000000000000000000000000000000000000000000000000600052602260045260246000fd5b60006002820490506001821680610a1257607f821691505b602082108103610a2557610a246109cb565b5b50919050565b7f4e487b7100000000000000000000000000000000000000000000000000000000600052601160045260246000fd5b6000610a6582610556565b91507fffffffffffffffffffffffffffffffffffffffffffffffffffffffffffffffff8203610a9757610a96610a2b565b5b600182019050919050565b60008190508160005260206000209050919050565b60006020601f8301049050919050565b600082821b905092915050565b600060088302610b047fffffffffffffffffffffffffffffffffffffffffffffffffffffffffffffffff82610ac7565b610b0e8683610ac7565b95508019841693508086168417925050509392505050565b6000819050919050565b6000610b4b610b46610b4184610556565b610b26565b610556565b9050919050565b6000819050919050565b610b6583610b30565b610b79610b7182610b52565b848454610ad4565b825550505050565b600090565b610b8e610b81565b610b99818484610b5c565b505050565b5b81811015610bbd57610bb2600082610b86565b600181019050610b9f565b5050565b601f821115610c0257610bd381610aa2565b610bdc84610ab7565b81016020851015610beb578190505b610bff610bf785610ab7565b830182610b9e565b50505b505050565b600082821c905092915050565b6000610c2560001984600802610c07565b1980831691505092915050565b6000610c3e8383610c14565b9150826002028217905092915050565b610c5782610638565b67ffffffffffffffff811115610c7057610c6f61079d565b5b610c7a82546109fa565b610c85828285610bc1565b600060209050601f831160018114610cb85760008415610ca6578287015190505b610cb08582610c32565b865550610d18565b601f198416610cc686610aa2565b60005b82811015610cee57848901518255600182019150602085019450602081019050610cc9565b86831015610d0b5784890151610d07601f891682610c14565b8355505b6001600288020188555050505b505050505050565b6000604082019050610d356000830185610629565b8181036020830152610d47818461068f565b9050939250505056fea2646970667358221220890b9fd124ab90a663cf9117bc3cde8a3a1a06421c05b6e220d30748bd63fd6564736f6c63430008140033",
  "linkReferences": {},
  "deployedLinkReferences": {}
}