{
  "_format": "hh-sol-artifact-1",
  "contractName": "ValidationRegistry",
  "sourceName": "contracts/ValidationRegistry.sol",
  "abi": [
    {
      "anonymous": false,
      "inputs": [
        {
          "indexed": true,
          "internalType": "uint256",
          "name": "artifactId",
          "type": "uint256"
        },
        {
          "indexed": true,
          "internalType": "uint256",
          "name": "agentId",
          "type": "uint256"
        },
        {
          "indexed": false,
          "internalType": "string",
          "name": "artifactType",
          "type": "string"
        }
      ],
      "name": "ArtifactLogged",
      "type": "event"
    },
    {
      "inputs": [
        {
          "internalType": "uint256",
          "name": "",
          "type": "uint256"
        },
        {
          "internalType": "uint256",
          "name": "",
          "type": "uint256"
        }
      ],
      "name": "agentArtifacts",
      "outputs": [
        {
          "internalType": "uint256",
          "name": "",
          "type": "uint256"
        }
      ],
      "stateMutability": "view",
      "type": "function"
    },
    {
      "inputs": [
        {
          "internalType": "uint256",
          "name": "",
          "type": "uint256"
        }
      ],
      "name": "artifacts",
      "outputs": [
        {
          "internalType": "uint256",
          "name": "artifactId",
          "type": "uint256"
        },
        {
          "internalType": "uint256",
          "name": "agentId",
          "type": "uint256"
        },
        {
          "internalType": "string",
          "name": "artifactType",
          "type": "string"
        },
        {
          "internalType": "bytes32",
          "name": "dataHash",
          "type": "bytes32"
        },
        {
          "internalType": "uint256",
          "name": "timestamp",
          "type": "uint256"
        }
      ],
      "stateMutability": "view",
      "type": "function"
    },
    {
      "inputs": [
        {
          "internalType": "uint256",
          "name": "agentId",
          "type": "uint256"
        }
      ],
      "name": "getArtifactCount",
      "outputs": [
        {
          "internalType": "uint256",
          "name": "",
          "type": "uint256"
        }
      ],
      "stateMutability": "view",
      "type": "function"
    },
    {
      "inputs": [
        {
          "internalType": "uint256",
          "name": "agentId",
          "type": "uint256"
        },
        {
          "internalType": "string",
          "name": "artifactType",
          "type": "string"
        },
        {
          "internalType": "bytes32",
          "name": "dataHash",
          "type": "bytes32"
        }
      ],
      "name": "logArtifact",
      "outputs": [
        {
          "internalType": "uint256",
          "name": "",
          "type": "uint256"
        }
      ],
      "stateMutability": "nonpayable",
      "type": "function"
    },
    {
      "inputs": [],
      "name": "nextArtifactId",
      "outputs": [
        {
          "internalType": "uint256",
          "name": "",
          "type": "uint256"
        }
      ],
      "stateMutability": "view",
      "type": "function"
    }
  ],
  "bytecode": "0x6080604052600160005534801561001557600080fd5b50610ac8806100256000396000f3fe608060405234801561001057600080fd5b50600436106100575760003560e01c80634812d7ce1461005c57806357f219b71461007a5780637b9ef7cf146100ae57806385c5f1ba146100de5780639be536c21461010e575b600080fd5b61006461013e565b6040516100719190610380565b60405180910390f35b610094600480360381019061008f91906103db565b610144565b6040516100a59594939291906104b1565b60405180910390f35b6100c860048036038101906100c391906103db565b610202565b6040516100d59190610380565b60405180910390f35b6100f860048036038101906100f3919061066c565b610222565b6040516101059190610380565b60405180910390f35b610128600480360381019061012391906106db565b610336565b6040516101359190610380565b60405180910390f35b60005481565b60016020528060005260406000206000915090508060000154908060010154908060020180546101739061074a565b80601f016020809104026020016040519081016040528092919081815260200182805461019f9061074a565b80156101ec5780601f106101c1576101008083540402835291602001916101ec565b820191906000526020600020905b8154815290600101906020018083116101cf57829003601f168201915b5050505050908060030154908060040154905085565b600060026000838152602001908152602001600020805490509050919050565b600080600080815480929190610237906107aa565b9190505590506040518060a001604052808281526020018681526020018581526020018481526020014281525060016000838152602001908152602001600020600082015181600001556020820151816001015560408201518160020190816102a0919061099e565b5060608201518160030155608082015181600401559050506002600086815260200190815260200160002081908060018154018082558091505060019003906000526020600020016000909190919091505584817f97fbfb590a3c9d5e4e803f0753539d6c254d5efdcd99143c6286cd34bb44c852866040516103239190610a70565b60405180910390a3809150509392505050565b6002602052816000526040600020818154811061035257600080fd5b90600052602060002001600091509150505481565b6000819050919050565b61037a81610367565b82525050565b60006020820190506103956000830184610371565b92915050565b6000604051905090565b600080fd5b600080fd5b6103b881610367565b81146103c357600080fd5b50565b6000813590506103d5816103af565b92915050565b6000602082840312156103f1576103f06103a5565b5b60006103ff848285016103c6565b91505092915050565b600081519050919050565b600082825260208201905092915050565b60005b83811015610442578082015181840152602081019050610427565b60008484015250505050565b6000601f19601f8301169050919050565b600061046a82610408565b6104748185610413565b9350610484818560208601610424565b61048d8161044e565b840191505092915050565b6000819050919050565b6104ab81610498565b82525050565b600060a0820190506104c66000830188610371565b6104d36020830187610371565b81810360408301526104e5818661045f565b90506104f460608301856104a2565b6105016080830184610371565b9695505050505050565b600080fd5b600080fd5b7f4e487b7100000000000000000000000000000000000000000000000000000000600052604160045260246000fd5b61054d8261044e565b810181811067ffffffffffffffff8211171561056c5761056b610515565b5b80604052505050565b600061057f61039b565b905061058b8282610544565b919050565b600067ffffffffffffffff8211156105ab576105aa610515565b5b6105b48261044e565b9050602081019050919050565b82818337600083830152505050565b60006105e36105de84610590565b610575565b9050828152602081018484840111156105ff576105fe610510565b5b61060a8482856105c1565b509392505050565b600082601f8301126106275761062661050b565b5b81356106378482602086016105d0565b91505092915050565b61064981610498565b811461065457600080fd5b50565b60008135905061066681610640565b92915050565b600080600060608486031215610685576106846103a5565b5b6000610693868287016103c6565b935050602084013567ffffffffffffffff8111156106b4576106b36103aa565b5b6106c086828701610612565b92505060406106d186828701610657565b9150509250925092565b600080604083850312156106f2576106f16103a5565b5b6000610700858286016103c6565b9250506020610711858286016103c6565b9150509250929050565b7f4e487b7100000000000000000000000000000000000000000000000000000000600052602260045260246000fd5b6000600282049050600182168061076257607f821691505b6020821081036107755761077461071b565b5b50919050565b7f4e487b7100000000000000000000000000000000000000000000000000000000600052601160045260246000fd5b60006107b582610367565b91507fffffffffffffffffffffffffffffffffffffffffffffffffffffffffffffffff82036107e7576107e661077b565b5b600182019050919050565b60008190508160005260206000209050919050565b60006020601f8301049050919050565b600082821b905092915050565b6000600883026108547fffffffffffffffffffffffffffffffffffffffffffffffffffffffffffffffff82610817565b61085e8683610817565b95508019841693508086168417925050509392505050565b6000819050919050565b600061089b61089661089184610367565b610876565b610367565b9050919050565b6000819050919050565b6108b583610880565b6108c96108c1826108a2565b848454610824565b825550505050565b600090565b6108de6108d1565b6108e98184846108ac565b505050565b5b8181101561090d576109026000826108d6565b6001810190506108ef565b5050565b601f82111561095257610923816107f2565b61092c84610807565b8101602085101561093b578190505b61094f61094785610807565b8301826108ee565b50505b505050565b600082821c905092915050565b600061097560001984600802610957565b1980831691505092915050565b600061098e8383610964565b9150826002028217905092915050565b6109a782610408565b67ffffffffffffffff8111156109c0576109bf610515565b5b6109ca825461074a565b6109d5828285610911565b600060209050601f831160018114610a0857600084156109f6578287015190505b610a008582610982565b865550610a68565b601f198416610a16866107f2565b60005b82811015610a3e57848901518255600182019150602085019450602081019050610a19565b86831015610a5b5784890151610a57601f891682610964565b8355505b6001600288020188555050505b505050505050565b60006020820190508181036000830152610a8a818461045f565b90509291505056fea2646970667358221220c26860821ae8ebd0c89681b4a542d4face646e1b496d41aafeefba9bbb23037864736f6c63430008140033",
  "linkReferences": {},
  "deployedLinkReferences": {}
}