{
  "_format": "hh-sol-artifact-1",
  "contractName": "ReputationRegistry",
  "sourceName": "contracts/ReputationRegistry.sol",
  "abi": [
    {
      "inputs": [],
      "stateMutability": "nonpayable",
      "type": "constructor"
    },
    {
      "anonymous": false,
      "inputs": [
        {
          "indexed": true,
          "internalType": "uint256",
          "name": "agentId",
          "type": "uint256"
        },
        {
          "indexed": false,
          "internalType": "int256",
          "name": "newScore",
          "type": "int256"
        }
      ],
      "name": "ReputationUpdated",
      "type": "event"
    },
    {
      "inputs": [
        {
          "internalType": "uint256",
          "name": "agentId",
          "type": "uint256"
        }
      ],
      "name": "getRecord",
      "outputs": [
        {
          "internalType": "int256",
          "name": "score",
          "type": "int256"
        },
        {
          "internalType": "uint256",
          "name": "totalVotes",
          "type": "uint256"
        },
        {
          "internalType": "uint256",
          "name": "correctVotes",
          "type": "uint256"
        },
        {
          "internalType": "uint256",
          "name": "lastUpdated",
          "type": "uint256"
        }
      ],
      "stateMutability": "view",
      "type": "function"
    },
    {
      "inputs": [
        {
          "internalType": "uint256",
          "name": "agentId",
          "type": "uint256"
        }
      ],
      "name": "getScore",
      "outputs": [
        {
          "internalType": "int256",
          "name": "",
          "type": "int256"
        }
      ],
      "stateMutability": "view",
      "type": "function"
    },
    {
      "inputs": [
        {
          "internalType": "uint256",
          "name": "agentId",
          "type": "uint256"
        }
      ],
      "name": "initAgent",
      "outputs": [],
      "stateMutability": "nonpayable",
      "type": "function"
    },
    {
      "inputs": [],
      "name": "owner",
      "outputs": [
        {
          "internalType": "address",
          "name": "",
          "type": "address"
        }
      ],
      "stateMutability": "view",
      "type": "function"
    },
    {
      "inputs": [
        {
          "internalType": "uint256",
          "name": "",
          "type": "uint256"
        }
      ],
      "name": "reputation",
      "outputs": [
        {
          "internalType": "uint256",
          "name": "agentId",
          "type": "uint256"
        },
        {
          "internalType": "int256",
          "name": "score",
          "type": "int256"
        },
        {
          "internalType": "uint256",
          "name": "totalVotes",
          "type": "uint256"
        },
        {
          "internalType": "uint256",
          "name": "correctVotes",
          "type": "uint256"
        },
        {
          "internalType": "uint256",
          "name": "lastUpdated",
          "type": "uint256"
        }
      ],
      "stateMutability": "view",
      "type": "function"
    },
    {
      "inputs": [
        {
          "internalType": "uint256",
          "name": "agentId",
          "type": "uint256"
        },
        {
          "internalType": "bool",
          "name": "wasCorrect",
          "type": "bool"
        }
      ],
      "name": "updateReputation",
      "outputs": [],
      "stateMutability": "nonpayable",
      "type": "function"
    }
  ],
  "bytecode": "0x608060405234801561001057600080fd5b5033600160006101000a81548173ffffffffffffffffffffffffffffffffffffffff021916908373ffffffffffffffffffffffffffffffffffffffff160217905550610833806100616000396000f3fe608060405234801561001057600080fd5b50600436106100625760003560e01c806303e9e609146100675780630e1af57b1461009a57806356c708d5146100ca578063710f2a8a146100fe5780638da5cb5b1461011a57806394d75d0314610138575b600080fd5b610081600480360381019061007c91906104ba565b610154565b604051610091949392919061050f565b60405180910390f35b6100b460048036038101906100af91906104ba565b610194565b6040516100c19190610554565b60405180910390f35b6100e460048036038101906100df91906104ba565b6101b3565b6040516100f595949392919061056f565b60405180910390f35b610118600480360381019061011391906105fa565b6101e9565b005b610122610355565b60405161012f919061067b565b60405180910390f35b610152600480360381019061014d91906104ba565b61037b565b005b6000806000806000806000878152602001908152602001600020905080600101548160020154826003015483600401549450945094509450509193509193565b6000806000838152602001908152602001600020600101549050919050565b60006020528060005260406000206000915090508060000154908060010154908060020154908060030154908060040154905085565b600160009054906101000a900473ffffffffffffffffffffffffffffffffffffffff1673ffffffffffffffffffffffffffffffffffffffff163373ffffffffffffffffffffffffffffffffffffffff1614610279576040517f08c379a0000000000000000000000000000000000000000000000000000000008152600401610270906106f3565b60405180910390fd5b6000806000848152602001908152602001600020905060018160020160008282546102a49190610742565b9250508190555081156102ee5760018160030160008282546102c69190610742565b9250508190555060058160010160008282546102e29190610776565b9250508190555061030b565b600381600101600082825461030391906107ba565b925050819055505b428160040181905550827ffee87f59c9a5b153b291b06480e98dc781913dac115bcf726fd443103d1d331d82600101546040516103489190610554565b60405180910390a2505050565b600160009054906101000a900473ffffffffffffffffffffffffffffffffffffffff1681565b600160009054906101000a900473ffffffffffffffffffffffffffffffffffffffff1673ffffffffffffffffffffffffffffffffffffffff163373ffffffffffffffffffffffffffffffffffffffff161461040b576040517f08c379a0000000000000000000000000000000000000000000000000000000008152600401610402906106f3565b60405180910390fd5b6040518060a0016040528082815260200160328152602001600081526020016000815260200142815250600080838152602001908152602001600020600082015181600001556020820151816001015560408201518160020155606082015181600301556080820151816004015590505050565b600080fd5b6000819050919050565b61049781610484565b81146104a257600080fd5b50565b6000813590506104b48161048e565b92915050565b6000602082840312156104d0576104cf61047f565b5b60006104de848285016104a5565b91505092915050565b6000819050919050565b6104fa816104e7565b82525050565b61050981610484565b82525050565b600060808201905061052460008301876104f1565b6105316020830186610500565b61053e6040830185610500565b61054b6060830184610500565b95945050505050565b600060208201905061056960008301846104f1565b92915050565b600060a0820190506105846000830188610500565b61059160208301876104f1565b61059e6040830186610500565b6105ab6060830185610500565b6105b86080830184610500565b9695505050505050565b60008115159050919050565b6105d7816105c2565b81146105e257600080fd5b50565b6000813590506105f4816105ce565b92915050565b600080604083850312156106115761061061047f565b5b600061061f858286016104a5565b9250506020610630858286016105e5565b9150509250929050565b600073ffffffffffffffffffffffffffffffffffffffff82169050919050565b60006106658261063a565b9050919050565b6106758161065a565b82525050565b6000602082019050610690600083018461066c565b92915050565b600082825260208201905092915050565b7f4e6f7420617574686f72697a6564000000000000000000000000000000000000600082015250565b60006106dd600e83610696565b91506106e8826106a7565b602082019050919050565b6000602082019050818103600083015261070c816106d0565b9050919050565b7f4e487b7100000000000000000000000000000000000000000000000000000000600052601160045260246000fd5b600061074d82610484565b915061075883610484565b92508282019050808211156107705761076f610713565b5b92915050565b6000610781826104e7565b915061078c836104e7565b9250828201905082811215600083121683821260008412151617156107b4576107b3610713565b5b92915050565b60006107c5826104e7565b91506107d0836104e7565b92508282039050818112600084121682821360008512151617156107f7576107f6610713565b5b9291505056fea26469706673582212200c017a1f8f433da07cc6a05e63b2083193425063c0787807d849fdfcd5f5503564736f6c63430008140033",
  "linkReferences": {},
  "deployedLinkReferences": {}
}